:02000000FA2CD8
:1000080070082000A1007108A00080310B1F14287F
:100018002100901E14282000901E1428DC23142888
:0C00280020002108F0002008F100090071
:0E00340055303C008F00AA308F000F100800DE
:0E00420055303C008F00AA308F000F140800CC
:0C00500000302000901A0130F000080081
:0C005C0000302000901A0130F000080075
:0C006800003023009E180130F00008005A
:0C007400003023009E180130F00008004E
:1000800023001908F1009D1C47281D121D16710838
:04009000F000080074
:1000940025004108053C031854280C30410203187C
:1000A400542859284108173C031C59285B28F0019F
:1000B4000D2B4208003A031D032944080319632841
:1000C4001A20B928250043083D009000FE28250089
:1000D40043083D009100FE28250043083D0092009E
:1000E400FE28250043083D009400FE28250043080F
:1000F4003D009500FE28250043083D009C00FE2895
:10010400250043083D009D00FE28250043083D00CE
:100114009E00FE28250043083D009F00FE28250080
:1001240043083D00A000FE28250043083D00A1002F
:10013400FE28250043083D00A200FE2825004308B0
:100144003D00A300FE28250043083D00A400FE282E
:10015400250043083D00A500FE28250043083D0076
:10016400A600FE28250043083D00A700FE28250020
:100174004108003A031964284108013A031969281F
:100184004108023A03196E284108043A03197328F6
:100194004108053A0319782841080C3A03197D28C7
:1001A40041080D3A0319822841080E3A0319872899
:1001B40041080F3A03198C284108103A0319912871
:1001C4004108113A031996284108123A03199B2849
:1001D4004108133A0319A0284108143A0319A52821
:1001E4004108153A0319AA284108163A0319AF28F9
:1001F4004108173A0319B4282500440803190329B0
:10020400212025004208013A031D2C2A4408031921
:100214000C291A2025004108C500AA2945083C00DC
:100224009000272A250045083C009100272A250034
:1002340045083C009200272A250045083C0093000D
:10024400272A250045083C009800272A2500450850
:100254003C009900272A250045083C009A00272ADB
:10026400250045083C009B00272A250045083C0042
:100274009C00272A250045083C009D00272A2500CC
:1002840045083C009E00272A250045083C009400B0
:10029400272A250045083C009500272A2500450803
:1002A4003C009700272A250045083C00A000272A87
:1002B400250045083C00A100272A250045083C00EC
:1002C400A200272A250045083C00A400272A25006F
:1002D40045083C00A500272A250045083C00A80045
:1002E400272A250045083C00A900272A250045089F
:1002F4003C00AA00272A250045083C00AB00272A19
:10030400250045083C00A700272A250045083C0095
:10031400A600272A250045083C00AD00272A250011
:1003240045083C00AC00272A250045083C009600FF
:10033400272A250045083C009F00272A2500450858
:100344003C00A300272A250045083C00AE00272ACC
:1003540025004308003A031910294308013A0319F8
:1003640014294308023A031919294308033A0319C3
:100374001E294308043A031923294308053A03199B
:1003840028294308063A03192D294308073A031973
:1003940032294308083A031937294308093A03194B
:1003A4003C2943080A3A0319412943080B3A031923
:1003B400462943080C3A03194B2943080D3A0319FB
:1003C400502943080E3A0319552943080F3A0319D3
:1003D4005A294308103A03195F294308113A0319AB
:1003E40064294308123A031969294308133A031983
:1003F4006E294308143A031973294308153A03195B
:1004040078294308163A03197D294308173A031932
:1004140082294308183A031987294308193A03190A
:100424008C2943081A3A0319912943081B3A0319E2
:10043400962943081C3A03199B2943081D3A0319BA
:10044400A02943081E3A0319A529250044080319C5
:100454002C2A2120C62A25004218332A21000C10F8
:10046400352A21000C140B2B250042183C2A2100AC
:100474008C103E2A21008C140B2B25004218452A8F
:1004840021000C11472A21000C150B2B25004218C2
:100494004E2A21000C12502A21000C160B2B250089
:1004A4004218572A21008C12592A21008C160B2B32
:1004B40025004218602A21000D12622A21000D161F
:1004C4000B2B25004218692A21008D126B2A21006A
:1004D4008D160B2B25004218722A21000D13742A45
:1004E40021000D170B2B250042187B2A21008D13A8
:1004F4007D2A21008D170B2B25004218842A210008
:100504000E10862A21000E140B2B250042188D2A6A
:1005140021008E108F2A21008E140B2B25004218E7
:10052400962A21000E11982A21000E150B2B250066
:1005340042189F2A21008E11A12A21008E150B2B0F
:1005440025004218A82A21000E12AA2A21000E16FC
:100554000B2B25004218B12A21008E12B32A210048
:100564008E160B2B25004218BA2A21000E13BC2A22
:1005740021000E170B2B25004218C32A21008E13CD
:10058400C52A21008E170B2B25004108003A0319B8
:100594002D2A4108013A0319362A4108023A03195F
:1005A4003F2A4108043A0319482A4108053A031925
:1005B400512A41080C3A03195A2A41080D3A0319E1
:1005C400632A41080E3A03196C2A41080F3A0319A9
:1005D400752A4108103A03197E2A4108113A031971
:1005E400872A4108123A0319902A4108133A031939
:1005F400992A4108143A0319A22A4108153A031901
:10060400AB2A4108163A0319B42A4108173A0319C8
:08061400BD2AFF30F0000800D0
:10061C0023001908F1009D1C152B1D121D167108C5
:04062C00F0000800D2
:0A06300071088A00700882000800BB
:10063A0025003E08C1003F08C2004008C30001303F
:06064A00C4004A20080074
:1006500014302500BE00BF011430C0001D2315302A
:100660002500BE000130BF001730C0001D23080068
:1006700025002E082000B50025002F082000B60018
:10068000250030082000B700250031082000B80000
:10069000250032082000B900250033082000BA00E8
:1006A000250034082000BB00250035082000BC00D0
:1006B000250036082000B100250037082000B200D0
:1006C000250038082000B300250039082000B400B8
:1006D00025003A082000AD0025003B082000AE00B0
:1006E00025003C082000AF0025003D082000B00098
:0206F000080000
:1006F20023009E1690309D002000901E842B230024
:080702001908F0007D2B08002E
:10070A0025004908F4004A08F5004708F20048089D
:10071A00F3004B08F0004C08F1000130CB02003026
:10072A00CC3B700871040319AB2B7408840075085C
:10073A008500720886007308870000088100F20AA3
:10074A000319F30AF40A0319F50A8E2B4708F00075
:06075A004808F100080050
:0E07600020003508F0003608F10018230800CC
:10076E0023009E18BC2B0000B72B25002E0823005B
:04077E009A000800D5
:100782002500AD012A0884002B0885000008AC0072
:100792002C08003A0319DB2B2C08AE00B7232500E6
:1007A200AD0A2D082A07840000302B3D8500000881
:0607B200AC00C92B080099
:1007B800B02370082500C600652C25004608DE3ADF
:1007C800031DE92B01302000A200862C25004608D5
:1007D800AD3A031DF42B2000A4010230A200FB2B2C
:1007E80025004608DE3A0319FB2B2000A201862CBF
:1007F800250046082000A600250046082000A4067B
:100808000330A200862C250046082000A5002500FC
:1008180046082000A406A3010430A200862C250067
:1008280046082000A4061D30F0002030F1002308FF
:10083800700786000030713D87002500460881005A
:100848002000A30A26082302031C2C2C0530A20032
:10085800862C2500460820002406031D362C063069
:10086800A200372CA201862C25004608BE3A031D9B
:10087800412C07302000A200432C2000A201862C26
:1008880025004608EF3A031D622C5C2C25001D301C
:10089800C7002030C800E530C9002030CA00B43095
:1008A800CB00CC01852301302000A700622C622CEC
:1008B800200025080A3A03194A2C5B2C2000A201C3
:1008C800862C20002208003A0319E12B2208013A5D
:1008D8000319EA2B2208023A0319FC2B2208033ACF
:1008E8000319072C2208043A0319132C2208053A85
:1008F80003192D2C2208063A0319382C2208073A26
:060908000319442C080055
:10090E00282340302500AE000030AF000030B0008C
:10091E000030B100B730B2000330B300AE30B400D7
:10092E000230B5002830B6000030B7000030B800F5
:10093E000030B9003430BA000030BB000030BC00CB
:0A094E000030BD00382379230800B3
:1009580001303E0091000E3092002730930028307D
:1009680094000E309500053096001030970008303E
:0C097800980020309900803090000800AA
:1009840080302C0099000630980040309700080011
:1009940020009E019D019F0113309B009A0190103D
:0609A40080309C000800F9
:0C09AA0024009401203095009201080008
:0E09B600783021009900980122009601080077
:1009C40023008C018D018E0121008D160D303C0019
:0E09D400A40006303D009F0004309200080091
:1009E20012001E00F003031DF12CF103031DF12C74
:0209F2000800FB
:1009F4002000A201A301A401A501A601A7014F3073
:100A0400A8004B30A9000D30AA000A30AB00AC019D
:100A1400E224DB24D524CA24C224AC2423009F1559
:100A240044309B0000309C001E1587242000901247
:100A3400210090168B170B1720002708013A031D7D
:100A4400452D2500A9012000A7012500A901B430E6
:100A540029020318402DE530F0002030F100290868
:100A6400700784000030713D850000082400910067
:100A740014183D2D3A2D2500A90A292D2830AA0045
:0A0A84000030AB00C1231E2D462DEB
:020000040001F9
:06000E00E00E831F1F3FFE
:00000001FF
