:02000000262CAC
:1000080070082000A1007108A00080310B1F14287F
:100018002100901E14282000901E1428A8231428BC
:0C00280020002108F0002008F100090071
:0E00340055303C008F00AA308F000F140800DA
:0E00420055303C008F00AA308F000F100800D0
:1000500023001908F1009D1C2F281D121D16710880
:04006000F0000800A4
:0C00640000302000901A0130F00008006D
:0C007000003023009E180130F000080052
:0C007C00003023009E180130F000080046
:1000880023001908F1009D1C4B281D121D1671082C
:04009800F00008006C
:10009C0020004608053C031858280C30460203186B
:1000AC0058285D284608173C031C5D285F28F00182
:1000BC00112B4708003A031D072949080319672823
:1000CC002120BD28200048083D0090000229200076
:1000DC0048083D0091000229200048083D0092008C
:1000EC000229200048083D009400022920004808FD
:1000FC003D0095000229200048083D009C00022983
:10010C00200048083D009D000229200048083D00C1
:10011C009E000229200048083D009F000229200073
:10012C0048083D00A0000229200048083D00A1001D
:10013C000229200048083D00A2000229200048089E
:10014C003D00A3000229200048083D00A40002291C
:10015C00200048083D00A5000229200048083D0069
:10016C00A6000229200048083D00A7000229200013
:10017C004608003A031968284608013A03196D2805
:10018C004608023A031972284608043A03197728DC
:10019C004608053A03197C2846080C3A03198128AD
:1001AC0046080D3A0319862846080E3A03198B287F
:1001BC0046080F3A031990284608103A0319952857
:1001CC004608113A03199A284608123A03199F282F
:1001DC004608133A0319A4284608143A0319A92807
:1001EC004608153A0319AE284608163A0319B328DF
:1001FC004608173A0319B82820004908031907299B
:10020C001A2020004708013A031D302A4908031917
:10021C001029212020004608CA00AE294A083C00BB
:10022C0090002B2A20004A083C0091002B2A200029
:10023C004A083C0092002B2A20004A083C009300FC
:10024C002B2A20004A083C0098002B2A20004A0840
:10025C003C0099002B2A20004A083C009A002B2ACB
:10026C0020004A083C009B002B2A20004A083C0036
:10027C009C002B2A20004A083C009D002B2A2000C1
:10028C004A083C009E002B2A20004A083C0094009F
:10029C002B2A20004A083C0095002B2A20004A08F3
:1002AC003C0097002B2A20004A083C00A0002B2A77
:1002BC0020004A083C00A1002B2A20004A083C00E0
:1002CC00A2002B2A20004A083C00A4002B2A200064
:1002DC004A083C00A5002B2A20004A083C00A80034
:1002EC002B2A20004A083C00A9002B2A20004A088F
:1002FC003C00AA002B2A20004A083C00AB002B2A09
:10030C0020004A083C00A7002B2A20004A083C0089
:10031C00A6002B2A20004A083C00AD002B2A200006
:10032C004A083C00AC002B2A20004A083C009600EE
:10033C002B2A20004A083C009F002B2A20004A0848
:10034C003C00A3002B2A20004A083C00AE002B2ABC
:10035C0020004808003A031914294808013A0319E7
:10036C0018294808023A03191D294808033A0319A9
:10037C0022294808043A031927294808053A031981
:10038C002C294808063A031931294808073A031959
:10039C0036294808083A03193B294808093A031931
:1003AC00402948080A3A0319452948080B3A031909
:1003BC004A2948080C3A03194F2948080D3A0319E1
:1003CC00542948080E3A0319592948080F3A0319B9
:1003DC005E294808103A031963294808113A031991
:1003EC0068294808123A03196D294808133A031969
:1003FC0072294808143A031977294808153A031941
:10040C007C294808163A031981294808173A031918
:10041C0086294808183A03198B294808193A0319F0
:10042C00902948081A3A0319952948081B3A0319C8
:10043C009A2948081C3A03199F2948081D3A0319A0
:10044C00A42948081E3A0319A929200049080319B0
:10045C00302A1A20CA2A20004718372A21000C10EB
:10046C00392A21000C140F2B20004718402A210098
:10047C008C10422A21008C140F2B20004718492A7B
:10048C0021000C114B2A21000C150F2B20004718B2
:10049C00522A21000C12542A21000C160F2B20007A
:1004AC0047185B2A21008C125D2A21008C160F2B19
:1004BC0020004718642A21000D12662A21000D160F
:1004CC000F2B200047186D2A21008D126F2A210056
:1004DC008D160F2B20004718762A21000D13782A31
:1004EC0021000D170F2B200047187F2A21008D1398
:1004FC00812A21008D170F2B20004718882A2100F4
:10050C000E108A2A21000E140F2B20004718912A56
:10051C0021008E10932A21008E140F2B20004718D7
:10052C009A2A21000E119C2A21000E150F2B200057
:10053C004718A32A21008E11A52A21008E150F2BF6
:10054C0020004718AC2A21000E12AE2A21000E16EC
:10055C000F2B20004718B52A21008E12B72A210034
:10056C008E160F2B20004718BE2A21000E13C02A0E
:10057C0021000E170F2B20004718C72A21008E13BD
:10058C00C92A21008E170F2B20004608003A0319A8
:10059C00312A4608013A03193A2A4608023A031945
:1005AC00432A4608043A03194C2A4608053A03190B
:1005BC00552A46080C3A03195E2A46080D3A0319C7
:1005CC00672A46080E3A0319702A46080F3A03198F
:1005DC00792A4608103A0319822A4608113A031957
:1005EC008B2A4608123A0319942A4608133A03191F
:1005FC009D2A4608143A0319A62A4608153A0319E7
:10060C00AF2A4608163A0319B82A4608173A0319AE
:08061C00C12AFF30F0000800C4
:0C06240000302000901A0130F0000800A7
:0A06300071088A00700882000800BB
:10063A0020004308C6004408C7004508C800013026
:06064A00C9004E2008006B
:1006500020003308A7003408A8003508A900360890
:10066000AA003708A3003808A4003908A5003A08F2
:10067000A6003B08AB003C08AC003D08AD003E08BE
:10068000AE003F08AF004008B0004108B10042088A
:04069000B2000800AC
:1006940023009E1690309D002000901E552B2300B1
:0806A4001908F0004E2B0800BC
:1006AC0014302000C300C4011430C5001D231530C4
:1006BC002000C3000130C4001730C5001D23080002
:0E06CC0020002708F0002808F100182308007D
:1006DA00562344302000B3000030B4000030B50087
:1006EA000030B600FF30B700FF30B800FF30B90065
:1006FA00FF30BA001230BB000330BC000030BD002E
:10070A000030BE003830BF000030C0000030C100E9
:0A071A000030C20028234A23080023
:1007240001303E0091000E309200273093002830B3
:1007340094000E3095000530960010309700083074
:0C074400980020309900803090000800E0
:10075000662370082000CB00D12B4B08DE3A031D26
:10076000B32B0130A200ED2B4B08AD3A031DBB2B80
:100770000230A200C02B4B08DE3A0319C02BA201A5
:10078000ED2B0330A200ED2BED2BED2B4B08BE3AE9
:10079000031DCD2B0730A200CE2BA201ED2BA20111
:1007A000ED2B2208003A0319AD2B2208013A031958
:1007B000B42B2208023A0319C12B2208033A031969
:1007C000C42B2208043A0319C52B2208063A031940
:0C07D000C62B2208073A0319CF2B0800A3
:1007DC0080302C00990006309800403097000800BB
:1007EC0020009E019D019F0113309B009A019010E7
:0607FC0080309C000800A3
:0E08020078302100990098012200960108002C
:0C081000240094012030950092010800A3
:10081C0023008C018D018E0121008D160D303C00C2
:0E082C00A40006303D009F000430920008003A
:10083A0012001E00F003031D1D2CF103031D1D2CC5
:02084A000800A4
:10084C002000A2010E2401240824F623EE23922377
:10085C0023009F1544309B0000309C001E156D2317
:06086C008B170B17382C5E
:020000040001F9
:06000E00E00E831F1F3FFE
:00000001FF
