:02000000992D38
:1000080070082000A4007108A3007208A2007408F8
:10001800A1007508A00080310B1F1A282100901E2E
:100028001A282000901E1A287A241A28200024084A
:10003800F0002308F1002208F2002108F40020084B
:04004800F5000900B6
:0E004C0055303C008F00AA308F000F140800C2
:0E005A0055303C008F00AA308F000F100800B8
:0C00680000302000901A0130F000080069
:0C00740000302000901A0130F00008005D
:0C008000003023009E180130F000080042
:0C008C00003023009E180130F000080036
:1000980023001908F1009D1C53281D121D16710814
:0400A800F00008005C
:1000AC0025004908053C031860280C304902031848
:1000BC00602865284908173C031C65286728F0014F
:1000CC00192B4A08003A031D0F294C0803196F28F5
:1000DC002D20C52825004B083D0090000A2925003D
:1000EC004B083D0091000A2925004B083D00920069
:1000FC000A2925004B083D0094000A2925004B08CD
:10010C003D0095000A2925004B083D009C000A295A
:10011C0025004B083D009D000A2925004B083D0099
:10012C009E000A2925004B083D009F000A29250046
:10013C004B083D00A0000A2925004B083D00A100FA
:10014C000A2925004B083D00A2000A2925004B086E
:10015C003D00A3000A2925004B083D00A4000A29F4
:10016C0025004B083D00A5000A2925004B083D0041
:10017C00A6000A2925004B083D00A7000A292500E6
:10018C004908003A031970284908013A03197528DF
:10019C004908023A03197A284908043A03197F28B6
:1001AC004908053A0319842849080C3A0319892887
:1001BC0049080D3A03198E2849080E3A0319932859
:1001CC0049080F3A031998284908103A03199D2831
:1001DC004908113A0319A2284908123A0319A72809
:1001EC004908133A0319AC284908143A0319B128E1
:1001FC004908153A0319B6284908163A0319BB28B9
:10020C004908173A0319C02825004C0803190F296F
:10021C00262025004A08013A031D382A4C080319E8
:10022C0018292D2025004908CD00B6294D083C0081
:10023C009000332A25004D083C009100332A2500FC
:10024C004D083C009200332A25004D083C009300D9
:10025C00332A25004D083C009800332A25004D0810
:10026C003C009900332A25004D083C009A00332AA3
:10027C0025004D083C009B00332A25004D083C000E
:10028C009C00332A25004D083C009D00332A250094
:10029C004D083C009E00332A25004D083C0094007C
:1002AC00332A25004D083C009500332A25004D08C3
:1002BC003C009700332A25004D083C00A000332A4F
:1002CC0025004D083C00A100332A25004D083C00B8
:1002DC00A200332A25004D083C00A400332A250037
:1002EC004D083C00A500332A25004D083C00A80011
:1002FC00332A25004D083C00A900332A25004D085F
:10030C003C00AA00332A25004D083C00AB00332AE0
:10031C0025004D083C00A700332A25004D083C0061
:10032C00A600332A25004D083C00AD00332A2500D9
:10033C004D083C00AC00332A25004D083C009600CB
:10034C00332A25004D083C009F00332A25004D0818
:10035C003C00A300332A25004D083C00AE00332A94
:10036C0025004B08003A03191C294B08013A0319C4
:10037C0020294B08023A031925294B08033A031983
:10038C002A294B08043A03192F294B08053A03195B
:10039C0034294B08063A031939294B08073A031933
:1003AC003E294B08083A031943294B08093A03190B
:1003BC0048294B080A3A03194D294B080B3A0319E3
:1003CC0052294B080C3A031957294B080D3A0319BB
:1003DC005C294B080E3A031961294B080F3A031993
:1003EC0066294B08103A03196B294B08113A03196B
:1003FC0070294B08123A031975294B08133A031943
:10040C007A294B08143A03197F294B08153A03191A
:10041C0084294B08163A031989294B08173A0319F2
:10042C008E294B08183A031993294B08193A0319CA
:10043C0098294B081A3A03199D294B081B3A0319A2
:10044C00A2294B081C3A0319A7294B081D3A03197A
:10045C00AC294B081E3A0319B12925004C08031985
:10046C00382A2620D22A25004A183F2A21000C10AF
:10047C00412A21000C14172B25004A18482A210068
:10048C008C104A2A21008C14172B25004A18512A4B
:10049C0021000C11532A21000C15172B25004A188A
:1004AC005A2A21000C125C2A21000C16172B25004D
:1004BC004A18632A21008C12652A21008C16172BEE
:1004CC0025004A186C2A21000D126E2A21000D16E7
:1004DC00172B25004A18752A21008D12772A210026
:1004EC008D16172B25004A187E2A21000D13802A01
:1004FC0021000D17172B25004A18872A21008D1370
:10050C00892A21008D17172B25004A18902A2100C3
:10051C000E10922A21000E14172B25004A18992A26
:10052C0021008E109B2A21008E14172B25004A18AF
:10053C00A22A21000E11A42A21000E15172B25002A
:10054C004A18AB2A21008E11AD2A21008E15172BCB
:10055C0025004A18B42A21000E12B62A21000E16C4
:10056C00172B25004A18BD2A21008E12BF2A210004
:10057C008E16172B25004A18C62A21000E13C82ADE
:10058C0021000E17172B25004A18CF2A21008E1395
:10059C00D12A21008E17172B25004908003A031980
:1005AC00392A4908013A0319422A4908023A03191F
:1005BC004B2A4908043A0319542A4908053A0319E5
:1005CC005D2A49080C3A0319662A49080D3A0319A1
:1005DC006F2A49080E3A0319782A49080F3A031969
:1005EC00812A4908103A03198A2A4908113A031931
:1005FC00932A4908123A03199C2A4908133A0319F9
:10060C00A52A4908143A0319AE2A4908153A0319C0
:10061C00B72A4908163A0319C02A4908173A031988
:08062C00C92AFF30F0000800AC
:1006340023001908F1009D1C212B1D121D167108A1
:04064400F0000800BA
:0A06480071088A00700882000800A3
:1006520025004608C9004708CA004808CB000130F7
:06066200CC005620080048
:10066800250036082200DC00250037082200DD00BE
:10067800250038082200DE00250039082200DF00A6
:1006880025003A082200E40025003B082200E50086
:1006980025003C082200E60025003D082200E7006E
:1006A80025003E082200E00025003F082200E10066
:1006B800250040082200E200250041082200E3004E
:1006C800250042082200D800250043082200D9004E
:1006D800250044082200DA00250045082200DB0036
:0206E800080008
:1006EA0014302500C600C7011430C800292315306C
:1006FA002500C6000130C7001730C80029230800AA
:10070A00710DF80DF90D7408F8027508031C750FC0
:10071A00F902F00DF10D0F30FC00710DF80DF90D15
:10072A007408701C9E2BF8027508031C750FF902D9
:10073A00A32BF80775080318750FF907F00DF10DCB
:10074A00FC0B922B7018AF2B7408F8077508031866
:08075A00750FF907000008000B
:1007620023009E1690309D002000901EBC2B23007B
:080772001908F000B52B080086
:10077A0023009E18C22B0000BD2B2500360823003B
:04078A009A000800C9
:0E078E0022005C08F0005D08F1002423080042
:10079C0025005108F4005208F5004F08F2005008EB
:1007AC00F3005308F0005408F1000130D30200307C
:1007BC00D43B700871040319F42B74088400750879
:1007CC008500720886007308870000088100F20A11
:1007DC000319F30AF40A0319F50AD72B4F08F00092
:0607EC005008F1000800B6
:1007F2007408003A031D062C7508003A031D062CE6
:10080200FF30F0007F30F1005E2C2000FD01F90185
:10081200F801710870040319003471087506FA00B2
:10082200FA1BFD09FB01F51F1B2CF409F509F40A5B
:100832000319F50AF11F222CF009F109F00A031934
:10084200F10A71087504FA00FA1B372C85237B180C
:100852004A2CFD1F0034F009F109F00A0319F10ACC
:10086200F809F909F80A0319F90A0034F51F462CA8
:10087200F11B422C7108F9007008F800F101F00137
:100882002A2CF101F001F00A0034F109F009FB0A07
:10089200272CF80A0319F90A74087802031D2A2C76
:1008A20075087902031D2A2CF901F801F00A0319CF
:0C08B200F10AF11F2A2C0000FF3408009E
:1008BE002500B50132088400330885000008B40015
:1008CE003408003A0319792C3408B600BD232500EC
:1008DE00B50A3508320784000030333D8500000824
:0608EE00B400672C0800B5
:1008F400C72370082500CE00032D25004E08DE3ADC
:10090400031D872C01302000A600242D25004E084D
:10091400AD3A031D922C2000A7010230A600992CA9
:1009240025004E08DE3A0319992C2000A601242D37
:1009340025004E082000A50025004E082000A7062B
:100944000330A600242D25004E082000A900250010
:100954004E082000A706A8010430A600242D250077
:100964004E082000A7061030F0002030F1002808BF
:10097400700786000030713D870025004E08810015
:100984002000A80A25082802031CCA2C0530A6004A
:10099400242D25004E0820002706031DD42C0630E4
:1009A400A600D52CA601242D25004E08BE3A031D11
:1009B400DF2C07302000A600E12C2000A601242D06
:1009C40025004E08EF3A031D002DFA2C2500E830CF
:1009D400CF002030D0001030D1002030D200B4300D
:1009E400D300D401CE2301302000AA00002D002D15
:1009F400200029080A3A0319E82CF92C2000A60142
:100A0400242D20002608003A03197F2C2608013AD9
:100A14000319882C2608023A03199A2C2608033A4B
:100A24000319A52C2608043A0319B12C2608053A03
:100A34000319CB2C2608063A0319D62C2608073AA4
:060A44000319E22C08007A
:100A4A0075234C302500B6000030B7000030B800DE
:100A5A000030B900BD30BA000330BB00B630BC006C
:100A6A000230BD003430BE000030BF000030C0008C
:100A7A000030C1004030C2000030C3000030C40062
:0A0A8A000030C5003423B12308003A
:100A940001303E0091000E30920027309300283040
:100AA40094000E3095000530960010309700083001
:0C0AB4009800203099008030900008006D
:0E0AC00080302C009900033098009701080048
:100ACE0020009E019D019F0105309B009A01901010
:060ADE0080309C000800BE
:0C0AE400240094012330950092010800CA
:0E0AF00078302100990098012200960108003C
:100AFE0023008C018D018E0121008D160D303C00DE
:100B0E00A40006303D009F000430920021000C111D
:020B1E000800CD
:100B200012001E00F003031D902DF103031D902DF4
:020B30000800BB
:100B32002000A501A601A701A801A901AA014F3021
:100B4200AB004B30AC000D30AD000A30AE00AF014F
:100B52002500AE01AF017F25782572256725602526
:100B62004A2523009F1544309B0000309C001E152F
:100B7200252520009012210090168B170B172500B7
:100B8200AE01AF0180302F06F00080307002031DED
:100B9200CC2DB4302E020318FD2DE830F0002030A9
:100BA200F1002E087007B0002F08713DB10002302D
:100BB200F4000030F5002E08F0002F08F100F923B0
:100BC2007808F0007908F10000307106031DEB2D62
:100BD20000307006031DF12D10302500AC00F32DFE
:100BE2002500AC0130088600310887002C088100FE
:100BF200AE0A0319AF0AC32DAE01AF0180302F0632
:100C0200F00080307002031D082EB4302E0203184B
:100C12001F2EE830F0002030F1002E08700784000B
:100C22002F08713D850000082400910014181A2E27
:100C3200172E2500AE0A0319AF0AFF2D20002A083D
:100C4200013A031D462E2500AD012000AA01250010
:100C5200AD01B4302D020318412EE830F0002030EF
:100C6200F1002D08700784000030713D85000008F6
:100C72002400910014183E2E3B2E2500AD0A2A2E88
:0E0C82002B30B2000030B3005F241F2E472E2F
:020000040001F9
:06000E00E00E831F1F3FFE
:00000001FF
